S012000068656C6C6F576F726C642E73726563F6
S11300000C942A000C9434000C9434000C943400A6
S11300100C9434000C9434000C9434000C9434008C
S11300200C9434000C9434000C9434000C9434007C
S11300300C9434000C9434000C9434000C9434006C
S11300400C9434000C9434000C9434000C9434005C
S11300500C94340011241FBECFE5D8E0DEBFCDBF21
S11300600E9436000C944F000C9400008FEF8ABB62
S1130070D898D99A2FEF89E698E121508040904092
S1130080E1F700C00000D89AD9982FEF89E698E1EB
S1130090215080409040E1F700C00000E9CFF8947F
S10500A0FFCF8C
S9030000FC
